{
  "contractName": "MyDefiProject",
  "abi": [
    {
      "inputs": [
        {
          "internalType": "address",
          "name": "_comptroller",
          "type": "address"
        },
        {
          "internalType": "address",
          "name": "_priceOracle",
          "type": "address"
        }
      ],
      "stateMutability": "nonpayable",
      "type": "constructor"
    },
    {
      "inputs": [],
      "name": "comptroller",
      "outputs": [
        {
          "internalType": "contract ComptrollerInterface",
          "name": "",
          "type": "address"
        }
      ],
      "stateMutability": "view",
      "type": "function"
    },
    {
      "inputs": [],
      "name": "priceOracle",
      "outputs": [
        {
          "internalType": "contract PriceOracleInterface",
          "name": "",
          "type": "address"
        }
      ],
      "stateMutability": "view",
      "type": "function"
    },
    {
      "inputs": [
        {
          "internalType": "address",
          "name": "cTokenAddress",
          "type": "address"
        },
        {
          "internalType": "uint256",
          "name": "underlyingAmount",
          "type": "uint256"
        }
      ],
      "name": "supply",
      "outputs": [],
      "stateMutability": "nonpayable",
      "type": "function"
    },
    {
      "inputs": [
        {
          "internalType": "address",
          "name": "cTokenAddress",
          "type": "address"
        },
        {
          "internalType": "uint256",
          "name": "cTokenAmount",
          "type": "uint256"
        }
      ],
      "name": "redeem",
      "outputs": [],
      "stateMutability": "nonpayable",
      "type": "function"
    },
    {
      "inputs": [
        {
          "internalType": "address",
          "name": "cTokenAddress",
          "type": "address"
        }
      ],
      "name": "enterMarket",
      "outputs": [],
      "stateMutability": "nonpayable",
      "type": "function"
    },
    {
      "inputs": [
        {
          "internalType": "address",
          "name": "cTokenAddress",
          "type": "address"
        },
        {
          "internalType": "uint256",
          "name": "borrowAmount",
          "type": "uint256"
        }
      ],
      "name": "borrow",
      "outputs": [],
      "stateMutability": "nonpayable",
      "type": "function"
    },
    {
      "inputs": [
        {
          "internalType": "address",
          "name": "cTokenAddress",
          "type": "address"
        },
        {
          "internalType": "uint256",
          "name": "underlyingAmount",
          "type": "uint256"
        }
      ],
      "name": "repayBorrow",
      "outputs": [],
      "stateMutability": "nonpayable",
      "type": "function"
    },
    {
      "inputs": [
        {
          "internalType": "address",
          "name": "cTokenAddress",
          "type": "address"
        }
      ],
      "name": "getMaxBorrow",
      "outputs": [
        {
          "internalType": "uint256",
          "name": "",
          "type": "uint256"
        }
      ],
      "stateMutability": "view",
      "type": "function"
    }
  ],
  "bytecode": "0x60806040523480156200001157600080fd5b50604051620018d0380380620018d08339818101604052810190620000379190620000d7565b816000806101000a81548173ffffffffffffffffffffffffffffffffffffffff021916908373ffffffffffffffffffffffffffffffffffffffff16021790555080600160006101000a81548173ffffffffffffffffffffffffffffffffffffffff021916908373ffffffffffffffffffffffffffffffffffffffff160217905550505062000171565b600081519050620000d18162000157565b92915050565b60008060408385031215620000f157620000f062000152565b5b60006200010185828601620000c0565b92505060206200011485828601620000c0565b9150509250929050565b60006200012b8262000132565b9050919050565b600073ffffffffffffffffffffffffffffffffffffffff82169050919050565b600080fd5b62000162816200011e565b81146200016e57600080fd5b50565b61174f80620001816000396000f3fe608060405234801561001057600080fd5b50600436106100885760003560e01c80635fe3b5671161005b5780635fe3b567146100ff578063abdb5ea81461011d578063f2b9fdb814610139578063fd1c317a1461015557610088565b80631e9a69501461008d5780632630c12f146100a95780633fe5d425146100c75780634b8a3529146100e3575b600080fd5b6100a760048036038101906100a29190610cbf565b610185565b005b6100b1610262565b6040516100be919061104f565b60405180910390f35b6100e160048036038101906100dc9190610c65565b610288565b005b6100fd60048036038101906100f89190610cbf565b61043d565b005b61010761051a565b6040516101149190611034565b60405180910390f35b61013760048036038101906101329190610cbf565b61053e565b005b610153600480360381019061014e9190610cbf565b61072c565b005b61016f600480360381019061016a9190610c65565b61091a565b60405161017c919061116a565b60405180910390f35b600082905060008173ffffffffffffffffffffffffffffffffffffffff1663db006a75846040518263ffffffff1660e01b81526004016101c5919061116a565b602060405180830381600087803b1580156101df57600080fd5b505af11580156101f3573d6000803e3d6000fd5b505050506040513d601f19601f820116820180604052508101906102179190610d75565b90506000811461025c576040517f08c379a00000000000000000000000000000000000000000000000000000000081526004016102539061114a565b60405180910390fd5b50505050565b600160009054906101000a900473ffffffffffffffffffffffffffffffffffffffff1681565b6000600167ffffffffffffffff8111156102a5576102a4611370565b5b6040519080825280602002602001820160405280156102d35781602001602082028036833780820191505090505b50905081816000815181106102eb576102ea611341565b5b602002602001019073ffffffffffffffffffffffffffffffffffffffff16908173ffffffffffffffffffffffffffffffffffffffff168152505060008060009054906101000a900473ffffffffffffffffffffffffffffffffffffffff1673ffffffffffffffffffffffffffffffffffffffff1663c2998238836040518263ffffffff1660e01b81526004016103819190611012565b600060405180830381600087803b15801561039b57600080fd5b505af11580156103af573d6000803e3d6000fd5b505050506040513d6000823e3d601f19601f820116820180604052508101906103d89190610cff565b90506000816000815181106103f0576103ef611341565b5b602002602001015114610438576040517f08c379a000000000000000000000000000000000000000000000000000000000815260040161042f9061108a565b60405180910390fd5b505050565b600082905060008173ffffffffffffffffffffffffffffffffffffffff1663c5ebeaec846040518263ffffffff1660e01b815260040161047d919061116a565b602060405180830381600087803b15801561049757600080fd5b505af11580156104ab573d6000803e3d6000fd5b505050506040513d601f19601f820116820180604052508101906104cf9190610d75565b905060008114610514576040517f08c379a000000000000000000000000000000000000000000000000000000000815260040161050b906110ea565b60405180910390fd5b50505050565b60008054906101000a900473ffffffffffffffffffffffffffffffffffffffff1681565b600082905060008173ffffffffffffffffffffffffffffffffffffffff16636f307dc36040518163ffffffff1660e01b815260040160206040518083038186803b15801561058b57600080fd5b505afa15801561059f573d6000803e3d6000fd5b505050506040513d601f19601f820116820180604052508101906105c39190610c92565b90508073ffffffffffffffffffffffffffffffffffffffff1663095ea7b385856040518363ffffffff1660e01b8152600401610600929190610fe9565b602060405180830381600087803b15801561061a57600080fd5b505af115801561062e573d6000803e3d6000fd5b505050506040513d601f19601f820116820180604052508101906106529190610d48565b5060008273ffffffffffffffffffffffffffffffffffffffff16630e752702856040518263ffffffff1660e01b815260040161068e919061116a565b602060405180830381600087803b1580156106a857600080fd5b505af11580156106bc573d6000803e3d6000fd5b505050506040513d601f19601f820116820180604052508101906106e09190610d75565b905060008114610725576040517f08c379a000000000000000000000000000000000000000000000000000000000815260040161071c906110aa565b60405180910390fd5b5050505050565b600082905060008173ffffffffffffffffffffffffffffffffffffffff16636f307dc36040518163ffffffff1660e01b815260040160206040518083038186803b15801561077957600080fd5b505afa15801561078d573d6000803e3d6000fd5b505050506040513d601f19601f820116820180604052508101906107b19190610c92565b90508073ffffffffffffffffffffffffffffffffffffffff1663095ea7b385856040518363ffffffff1660e01b81526004016107ee929190610fe9565b602060405180830381600087803b15801561080857600080fd5b505af115801561081c573d6000803e3d6000fd5b505050506040513d601f19601f820116820180604052508101906108409190610d48565b5060008273ffffffffffffffffffffffffffffffffffffffff1663a0712d68856040518263ffffffff1660e01b815260040161087c919061116a565b602060405180830381600087803b15801561089657600080fd5b505af11580156108aa573d6000803e3d6000fd5b505050506040513d601f19601f820116820180604052508101906108ce9190610d75565b905060008114610913576040517f08c379a000000000000000000000000000000000000000000000000000000000815260040161090a906110ca565b60405180910390fd5b5050505050565b60008060008060008054906101000a900473ffffffffffffffffffffffffffffffffffffffff1673ffffffffffffffffffffffffffffffffffffffff16635ec88c79306040518263ffffffff1660e01b81526004016109799190610fce565b60606040518083038186803b15801561099157600080fd5b505afa1580156109a5573d6000803e3d6000fd5b505050506040513d601f19601f820116820180604052508101906109c99190610da2565b92509250925060008314610a12576040517f08c379a0000000000000000000000000000000000000000000000000000000008152600401610a099061106a565b60405180910390fd5b60008114610a55576040517f08c379a0000000000000000000000000000000000000000000000000000000008152600401610a4c9061112a565b60405180910390fd5b60008211610a98576040517f08c379a0000000000000000000000000000000000000000000000000000000008152600401610a8f9061110a565b60405180910390fd5b6000600160009054906101000a900473ffffffffffffffffffffffffffffffffffffffff1673ffffffffffffffffffffffffffffffffffffffff1663fc57d4df876040518263ffffffff1660e01b8152600401610af59190610fce565b60206040518083038186803b158015610b0d57600080fd5b505afa158015610b21573d6000803e3d6000fd5b505050506040513d601f19601f82011682018060405250810190610b459190610d75565b90508083610b539190611220565b945050505050919050565b6000610b71610b6c846111aa565b611185565b90508083825260208201905082856020860282011115610b9457610b936113a4565b5b60005b85811015610bc45781610baa8882610c50565b845260208401935060208301925050600181019050610b97565b5050509392505050565b600081359050610bdd816116d4565b92915050565b600081519050610bf2816116d4565b92915050565b600082601f830112610c0d57610c0c61139f565b5b8151610c1d848260208601610b5e565b91505092915050565b600081519050610c35816116eb565b92915050565b600081359050610c4a81611702565b92915050565b600081519050610c5f81611702565b92915050565b600060208284031215610c7b57610c7a6113ae565b5b6000610c8984828501610bce565b91505092915050565b600060208284031215610ca857610ca76113ae565b5b6000610cb684828501610be3565b91505092915050565b60008060408385031215610cd657610cd56113ae565b5b6000610ce485828601610bce565b9250506020610cf585828601610c3b565b9150509250929050565b600060208284031215610d1557610d146113ae565b5b600082015167ffffffffffffffff811115610d3357610d326113a9565b5b610d3f84828501610bf8565b91505092915050565b600060208284031215610d5e57610d5d6113ae565b5b6000610d6c84828501610c26565b91505092915050565b600060208284031215610d8b57610d8a6113ae565b5b6000610d9984828501610c50565b91505092915050565b600080600060608486031215610dbb57610dba6113ae565b5b6000610dc986828701610c50565b9350506020610dda86828701610c50565b9250506040610deb86828701610c50565b9150509250925092565b6000610e018383610e0d565b60208301905092915050565b610e1681611251565b82525050565b610e2581611251565b82525050565b6000610e36826111e6565b610e4081856111fe565b9350610e4b836111d6565b8060005b83811015610e7c578151610e638882610df5565b9750610e6e836111f1565b925050600181019050610e4f565b5085935050505092915050565b610e9281611299565b82525050565b610ea1816112bd565b82525050565b6000610eb460598361120f565b9150610ebf826113c4565b606082019050919050565b6000610ed760518361120f565b9150610ee282611439565b606082019050919050565b6000610efa604c8361120f565b9150610f05826114ae565b606082019050919050565b6000610f1d60458361120f565b9150610f2882611523565b606082019050919050565b6000610f4060478361120f565b9150610f4b82611598565b606082019050919050565b6000610f6360208361120f565b9150610f6e8261160d565b602082019050919050565b6000610f8660128361120f565b9150610f9182611636565b602082019050919050565b6000610fa960478361120f565b9150610fb48261165f565b606082019050919050565b610fc88161128f565b82525050565b6000602082019050610fe36000830184610e1c565b92915050565b6000604082019050610ffe6000830185610e1c565b61100b6020830184610fbf565b9392505050565b6000602082019050818103600083015261102c8184610e2b565b905092915050565b60006020820190506110496000830184610e89565b92915050565b60006020820190506110646000830184610e98565b92915050565b6000602082019050818103600083015261108381610ea7565b9050919050565b600060208201905081810360008301526110a381610eca565b9050919050565b600060208201905081810360008301526110c381610eed565b9050919050565b600060208201905081810360008301526110e381610f10565b9050919050565b6000602082019050818103600083015261110381610f33565b9050919050565b6000602082019050818103600083015261112381610f56565b9050919050565b6000602082019050818103600083015261114381610f79565b9050919050565b6000602082019050818103600083015261116381610f9c565b9050919050565b600060208201905061117f6000830184610fbf565b92915050565b600061118f6111a0565b905061119b82826112e1565b919050565b6000604051905090565b600067ffffffffffffffff8211156111c5576111c4611370565b5b602082029050602081019050919050565b6000819050602082019050919050565b600081519050919050565b6000602082019050919050565b600082825260208201905092915050565b600082825260208201905092915050565b600061122b8261128f565b91506112368361128f565b92508261124657611245611312565b5b828204905092915050565b600061125c8261126f565b9050919050565b60008115159050919050565b600073ffffffffffffffffffffffffffffffffffffffff82169050919050565b6000819050919050565b60006112a4826112ab565b9050919050565b60006112b68261126f565b9050919050565b60006112c8826112cf565b9050919050565b60006112da8261126f565b9050919050565b6112ea826113b3565b810181811067ffffffffffffffff8211171561130957611308611370565b5b80604052505050565b7f4e487b7100000000000000000000000000000000000000000000000000000000600052601260045260246000fd5b7f4e487b7100000000000000000000000000000000000000000000000000000000600052603260045260246000fd5b7f4e487b7100000000000000000000000000000000000000000000000000000000600052604160045260246000fd5b600080fd5b600080fd5b600080fd5b600080fd5b6000601f19601f8301169050919050565b7f636f6d7074726f6c6c6572236765744163636f756e744c69717569646974792860008201527f29206661696c65642e2073656520436f6d706f756e64204572726f725265706f60208201527f727465722e736f6c20666f72206d6f72652064657461696c7300000000000000604082015250565b7f636f6d7074726f6c6c657223656e7465724d61726b65742829206661696c656460008201527f2e2073656520436f6d706f756e64204572726f725265706f727465722e736f6c60208201527f20666f72206d6f72652064657461696c73000000000000000000000000000000604082015250565b7f63546f6b656e237265706179426f72726f772829206661696c65642e2073656560008201527f20436f6d706f756e64204572726f725265706f727465722e736f6c20666f722060208201527f6d6f72652064657461696c730000000000000000000000000000000000000000604082015250565b7f63546f6b656e236d696e742829206661696c65642e2073656520436f6d706f7560008201527f6e64204572726f725265706f727465722e736f6c20666f72206d6f726520646560208201527f7461696c73000000000000000000000000000000000000000000000000000000604082015250565b7f63546f6b656e23626f72726f772829206661696c65642e2073656520436f6d7060008201527f6f756e64204572726f725265706f727465722e736f6c20666f72206d6f72652060208201527f64657461696c7300000000000000000000000000000000000000000000000000604082015250565b7f6163636f756e7420646f6573206e6f74206861766520636f6c6c61746572616c600082015250565b7f6163636f756e7420756e64657277617465720000000000000000000000000000600082015250565b7f63546f6b656e2372656465656d2829206661696c65642e2073656520436f6d7060008201527f6f756e64204572726f725265706f727465722e736f6c20666f72206d6f72652060208201527f64657461696c7300000000000000000000000000000000000000000000000000604082015250565b6116dd81611251565b81146116e857600080fd5b50565b6116f481611263565b81146116ff57600080fd5b50565b61170b8161128f565b811461171657600080fd5b5056fea2646970667358221220f795a39612cd3e078bc9115209c33b9f2916f99cc061699d62835dd6c7a3bb3b64736f6c63430008060033",
  "immutableReferences": {},
  "source": "pragma solidity ^0.8.6;\r\n//SPDX-License-Identifier:UNLICENSED\r\n\r\n//interact with compound\r\nimport '@openzeppelin/contracts/token/ERC20/IERC20.sol';\r\nimport './CTokenInterface.sol';\r\nimport './ComptrollerInterface.sol';\r\nimport './PriceOracleInterface.sol';\r\n\r\ncontract MyDefiProject {\r\n\r\n    ComptrollerInterface public comptroller;\r\n    PriceOracleInterface public priceOracle;\r\n\r\n    constructor(\r\n        //hardcoding here because is more flexible for testnets\r\n        address _comptroller,\r\n        address _priceOracle\r\n    ){//instanciate our price controller and variable\r\n        comptroller = ComptrollerInterface(_comptroller);\r\n        priceOracle = PriceOracleInterface(_priceOracle);\r\n    }\r\n\r\n    //cToken which we want to lend and the amount of underlying DAI\r\n    function supply(address cTokenAddress, uint underlyingAmount) external {\r\n        //pointer to the CToken and the address on parameters\r\n        CTokenInterface cToken = CTokenInterface(cTokenAddress);\r\n        address underlyingAddress = cToken.underlying();\r\n        IERC20(underlyingAddress).approve(cTokenAddress, underlyingAmount);\r\n        //call mint function on the CToken contract, this is the lending\r\n        //the token will be send from our contract to their contract\r\n        uint result = cToken.mint(underlyingAmount);\r\n        require(//message error in case of if mint is failed\r\n            result == 0,\r\n            'cToken#mint() failed. see Compound ErrorReporter.sol for more details'\r\n        );\r\n    }\r\n    //once you have the Ctoken you want to redeem it against the underlying token\r\n    //that you initially lend + the interest\r\n    function redeem(address cTokenAddress, uint cTokenAmount) external {\r\n        CTokenInterface cToken = CTokenInterface(cTokenAddress);\r\n        uint result = cToken.redeem(cTokenAmount);\r\n         require(//message error in case of if mint is failed\r\n            result == 0,\r\n            'cToken#redeem() failed. see Compound ErrorReporter.sol for more details'\r\n        );\r\n    }\r\n//borrowing part\r\n//first to borrow once you have lend some tokens to compound, you need to indicate to compound which \r\n//of this tokens you use as collaterals\r\nfunction enterMarket(address cTokenAddress) external {\r\n    //array of cToken addresses that we want to use as collateral\r\n    //we can pass an array of cToken addresses\r\n     address[] memory markets = new address[](1);\r\n     //first entry of the market\r\n     markets[0] = cTokenAddress;\r\n     //give to us an array of results\r\n     uint[] memory results = comptroller.enterMarkets(markets);\r\n     require(\r\n        results[0] == 0,\r\n        'comptroller#enterMarket() failed. see Compound ErrorReporter.sol for more details'\r\n        );\r\n    }\r\n\r\n    //when we are enter to the markets, we are ready to borrow some tokens\r\n    function borrow(address cTokenAddress, uint borrowAmount) external {\r\n        //pointer to get addrss of the underlyings\r\n        CTokenInterface cToken = CTokenInterface(cTokenAddress);\r\n        //call the borrow function\r\n        uint result = cToken.borrow(borrowAmount);\r\n        require(\r\n            result == 0,\r\n            'cToken#borrow() failed. see Compound ErrorReporter.sol for more details'\r\n        );\r\n    }\r\n\r\n    //repay our loan, no concept of loan duration in compound\r\n    //specify underlying amount we want to repay\r\n    function repayBorrow(address cTokenAddress, uint underlyingAmount) external {\r\n        CTokenInterface cToken = CTokenInterface(cTokenAddress);\r\n        //call the borrow function\r\n        address underlyingAddress = cToken.underlying();\r\n        //approve the underlying to be spent by the cToken address\r\n        IERC20(underlyingAddress).approve(cTokenAddress, underlyingAmount);\r\n        uint result = cToken.repayBorrow(underlyingAmount);\r\n        require(\r\n            result == 0,\r\n            'cToken#repayBorrow() failed. see Compound ErrorReporter.sol for more details'\r\n        );\r\n    }\r\n\r\n    //what is the maximum amount you can borrow from the asset\r\n    //cTokenAdress: we want to borrow the underlying asset of the cToken\r\n    function getMaxBorrow(address cTokenAddress) external view returns(uint) {\r\n        //what is the amount of money in dollars we shortffall or how much money we are short off\r\n        (uint result, uint liquidity, uint shortfall) = comptroller\r\n            .getAccountLiquidity(address(this));\r\n        require(\r\n            result == 0,\r\n            'comptroller#getAccountLiquidity() failed. see Compound ErrorReporter.sol for more details'\r\n        );\r\n        require(shortfall == 0, 'account underwater');\r\n        require(liquidity > 0, 'account does not have collateral');\r\n        //get the price of the underlying token\r\n        uint underlyingPrice = priceOracle.getUnderlyingPrice(cTokenAddress);\r\n        //if the liquidity is 1000 we can borrow 1000$\r\n        //if the underlying price is 100, means the price of the token is 100$ ,\r\n        //we can borrow 10 of this token\r\n        return liquidity / underlyingPrice;\r\n    }\r\n\r\n\r\n\r\n}",
  "sourcePath": "C:\\Users\\const\\Desktop\\Defi\\Compound\\contracts\\MyDefiProject.sol",
  "compiler": {
    "name": "solc",
    "version": "0.8.6+commit.11564f7e.Emscripten.clang"
  },
  "schemaVersion": "3.4.2",
  "updatedAt": "2021-09-06T00:54:59.831Z",
  "devdoc": {
    "kind": "dev",
    "methods": {},
    "version": 1
  },
  "userdoc": {
    "kind": "user",
    "methods": {},
    "version": 1
  }
}